:100000000C9454000C947C000C947C000C947C00A8
:100010000C947C000C947C000C947C000C947C0070
:100020000C947C000C947C000C947C000C947C0060
:100030000C947C000C94BF040C947C000C947C0009
:100040000C941D040C947C000C948D040C94670497
:100050000C947C000C947C000C947C000C947C0030
:100060000C947C000C947C0000000000250028000B
:100070002B0000000000240027002A0004040404D0
:100080000404040402020202020203030303030342
:10009000010204081020408001020408102001021F
:1000A00004081020E404DC0611241FBECFEFD8E0C2
:1000B000DEBFCDBF21E0A2E2B1E001C01D92A93DAB
:1000C000B207E1F711E0A0E0B1E0E8E4F3E102C03B
:1000D00005900D92A232B107D9F710E0C3E5D0E048
:1000E00004C02197FE010E949F07C235D107C9F7BE
:1000F0000E942B050C9497090C94000090E0FC01E1
:10010000E057FF4F249184589F4FFC01849188232E
:1001100099F090E0880F991FFC01EE58FF4FA591D0
:10012000B491FC01E859FF4F859194918FB7F894F1
:10013000EC91E22BEC938FBF0895AF92BF92CF92D8
:10014000DF92EF92FF920F931F93CF93DF936C0197
:100150007B018B01040F151FEB015E01AE18BF0878
:10016000C017D10759F06991D601ED91FC9101902A
:10017000F081E02DC6010995892B79F7C501DF9142
:10018000CF911F910F91FF90EF90DF90CF90BF9094
:10019000AF900895FC01538D448D252F30E0842FBE
:1001A00090E0821B930B541710F0CF96089501979F
:1001B0000895FC01918D828D981761F0A28DAE0F8C
:1001C000BF2FB11D5D968C91928D9F5F9F73928F13
:1001D00090E008958FEF9FEF0895FC01918D828D3F
:1001E000981731F0828DE80FF11D858D90E008950C
:1001F0008FEF9FEF0895FC01918D228D892F90E064
:10020000805C9F4F821B91098F73992708958EE21E
:1002100091E00E94FB0021E0892B09F420E0822F6D
:10022000089580E090E0892B29F00E940701811158
:100230000C9400000895FC01A48DA80FB92FB11DE6
:10024000A35ABF4F2C91848D90E001968F7399270C
:10025000848FA689B7892C93A089B1898C918370EA
:1002600080648C93938D848D981306C00288F389E3
:10027000E02D80818F7D80830895EF92FF920F9310
:100280001F93CF93DF93EC0181E0888F9B8D8C8D42
:1002900098131AC0E889F989808185FF15C09FB736
:1002A000F894EE89FF896083E889F98980818370F9
:1002B000806480839FBF81E090E0DF91CF911F91A8
:1002C0000F91FF90EF900895F62E0B8D10E00F5FC9
:1002D0001F4F0F731127E02E8C8D8E110CC00FB69F
:1002E00007FCFACFE889F989808185FFF5CFCE0137
:1002F0000E941B01F1CFEB8DEC0FFD2FF11DE35A96
:10030000FF4FF0829FB7F8940B8FEA89FB898081B9
:100310008062CFCFCF93DF93EC01888D8823B9F033
:10032000AA89BB89E889F9898C9185FD03C0808100
:1003300086FD0DC00FB607FCF7CF8C9185FFF2CF7D
:10034000808185FFEDCFCE010E941B01E9CFDF91B7
:10035000CF9108958E50806480937C0080917A00C4
:10036000806480937A0080917A0086FDFCCF809132
:1003700078009091790008950F931F93CF93DF93A6
:10038000EC0188819981009759F02A813B812617D9
:10039000370730F081E0DF91CF911F910F910895E1
:1003A0008B016F5F7F4F0E94CA08009759F09983B5
:1003B00088831B830A832C813D81232B59F7FC0101
:1003C0001082E8CF80E0E7CFEF92FF920F931F9368
:1003D000CF93DF936115710541F480E0DF91CF91F8
:1003E0001F910F91FF90EF90089541155105B1F0C5
:1003F0007B01EC010C811D81040F151FB8010E94C7
:10040000BC01882351F3288139818C819D81B701FA
:10041000820F931F0E9490091D830C8381E0DECF21
:10042000CF93DF93EC0188819981009711F00E94AE
:100430004108198218821D821C821B821A82DF9158
:10044000CF910895CF93DF93EC0141E050E06CE150
:1004500071E00E94E401811103C0CE010E941002EC
:10046000CE01DF91CF910895CF93DF93EC01FB0193
:1004700044815581608171810E94E401811103C032
:10048000CE010E941002CE01DF91CF910895EF922C
:10049000FF920F931F93CF93DF93EC017B018A01AF
:1004A000BA010E94BC0181110BC0CE010E94100252
:1004B000CE01DF91CF911F910F91FF90EF900895A2
:1004C0001D830C83B701888199810E949009F0CF28
:1004D000EF92FF920F931F93CF93DF93CDB7DEB7C9
:1004E000A1970FB6F894DEBF0FBECDBF8C01CB0134
:1004F000BA01F801118210821382128215821482CD
:100500002AE0AE014F5F5F4F7A010E941C07F7019E
:1005100001900020E9F73197AF014E195F09B7014B
:10052000C8010E944702A1960FB6F894DEBF0FBE25
:10053000CDBFDF91CF911F910F91FF90EF90089564
:10054000CF93DF93EC01FB018617970749F0608199
:1005500071816115710541F0448155810E94470206
:10056000CE01DF91CF9108950E941002F9CFFC01D6
:1005700080819181009711F00C94410808954F9269
:100580005F926F927F928F929F92AF92BF92CF9223
:10059000DF92EF92FF920F931F93CF93DF93CDB72C
:1005A000DEB7A2970FB6F894DEBF0FBECDBF10E046
:1005B00000E01F8E18A219A21AA2412C512C320160
:1005C000812C912C5401C12CD12C76010F5F1F4F2F
:1005D00001301007A9F18EE00E94AA01092E000C3B
:1005E000AA0BBB0BC80ED91EEA1EFB1E8FE00E9491
:1005F000AA01092E000CAA0BBB0B880E991EAA1E7D
:10060000BB1E80E10E94AA01092E000CAA0BBB0BA5
:10061000480E591E6A1E7B1E81E10E94AA01092E06
:10062000000CAA0BBB0B2F8D38A149A15AA1280F92
:10063000391F4A1F5B1F2F8F38A349A35AA3C6CF68
:100640004F8D58A169A17AA1CE0149960E946802F6
:10065000B301A201CE0143960E946802B501A40134
:10066000CE010D960E946802B701A601CE01019647
:100670000E94680218861F821A8619861C861B86AD
:10068000BE016F5F7F4FCE0107960E94A002CE0190
:1006900007960E942202BE01635F7F4F0E943402D0
:1006A0000E942202BE016D5E7F4F0E9434020E94B2
:1006B0002202BE01675E7F4F0E943402FC0144812A
:1006C0005581608171818EE291E00E949D0042E03F
:1006D00050E06EE171E08EE291E00E949D00CE015B
:1006E00007960E94B702CE0101960E94B702CE0182
:1006F0000D960E94B702CE0143960E94B702CE012A
:1007000049960E94B702A2960FB6F894DEBF0FBEBC
:10071000CDBFDF91CF911F910F91FF90EF90DF90B0
:10072000CF90BF90AF909F908F907F906F905F9091
:100730004F900895CF92DF92EF92FF92CF93209146
:10074000CF013091D001232B09F465C0E091CB019A
:10075000F091CC019081992309F45DC0C82FC12C80
:10076000D12C7601309729F0CF010E94E0066B0171
:100770007C01C0920001D0920101E0920201F0924E
:10078000030150E040E06DE171E08BEC91E00E94EC
:100790004702C11484E0D806E104F10460F08FEF51
:1007A00093E0A0E0B0E08093000190930101A0935A
:1007B0000201B0930301C0900001D0900101E090CC
:1007C0000201F0900301C93061F589E00E947E00CA
:1007D00080918000806880938000A0912201B09178
:1007E0002301A7019601442755270E944E07DC01EB
:1007F000CB012AE0B695A795979587952A95D1F7CD
:10080000C930B1F4909389008093880080912401CD
:10081000806180938100CF91FF90EF90DF90CF9027
:1008200008958AE00E947E00809180008062D3CF8C
:1008300090938B0080938A00E9CF1F920F920FB69E
:100840000F9211242F933F938F939F93AF93BF9356
:1008500080912A0190912B01A0912C01B0912D0142
:100860003091290123E0230F2D3758F50196A11D62
:10087000B11D2093290180932A0190932B01A0930D
:100880002C01B0932D018091250190912601A0911A
:100890002701B09128010196A11DB11D809325016A
:1008A00090932601A0932701B0932801BF91AF91A7
:1008B0009F918F913F912F910F900FBE0F901F909E
:1008C000189526E8230F0296A11DB11DD2CF1F92C5
:1008D0000F920FB60F9211242F933F934F935F9374
:1008E0006F937F938F939F93AF93BF93EF93FF93F8
:1008F0008EE291E00E941B01FF91EF91BF91AF91B9
:100900009F918F917F916F915F914F913F912F9127
:100910000F900FBE0F901F9018951F920F920FB659
:100920000F9211242F938F939F93EF93FF93E09156
:100930003E01F0913F018081E0914401F091450139
:1009400082FD1BC09081809147018F5F8F73209142
:100950004801821741F0E0914701F0E0E25DFE4F6F
:10096000958F80934701FF91EF919F918F912F91E8
:100970000F900FBE0F901F9018958081F4CF1F929B
:100980000F920FB60F9211242F933F934F935F93C3
:100990006F937F938F939F93AF93BF93EF93FF9347
:1009A000F0E0E0E00995FF91EF91BF91AF919F9149
:1009B0008F917F916F915F914F913F912F910F9008
:1009C0000FBE0F901F901895EEE2F1E01382128295
:1009D00088EE93E0A0E0B0E084839583A683B7839C
:1009E0008EE091E09183808385EC90E09587848709
:1009F00084EC90E09787868780EC90E0918B808BE9
:100A000081EC90E0938B828B82EC90E0958B848BD1
:100A100086EC90E0978B868B118E128E138E148E3F
:100A200084E690E0A0E0B0E08093D1019093D20101
:100A3000A093D301B093D401EBECF1E011821082CA
:100A4000138212821582148250E040E06DE171E061
:100A5000CF010C944702CF93DF93CDB7DEB7289731
:100A60000FB6F894DEBF0FBECDBF789484B5826018
:100A700084BD84B5816084BD85B5826085BD85B542
:100A8000816085BD80916E00816080936E001092C0
:100A9000810080918100826080938100809181003B
:100AA00081608093810080918000816080938000CC
:100AB0008091B10084608093B1008091B00081602A
:100AC0008093B00080917A00846080937A00809156
:100AD0007A00826080937A0080917A0081608093AE
:100AE0007A0080917A00806880937A001092C10029
:100AF000E0913E01F0913F0112E01083E0913A0154
:100B0000F0913B011082E0913C01F0913D0101E048
:100B1000008310924601E0914201F091430186E08A
:100B20008083E0914001F091410180818061808368
:100B3000E0914001F0914101808188608083E091E3
:100B40004001F0914101808180688083E091400103
:100B5000F091410180818F7D808389E00E947E0039
:100B60004091D1015091D2016091D3017091D40193
:100B700080E18093810010928000DB01CA01E3E0F4
:100B8000880F991FAA1FBB1FEA95D1F7009721E094
:100B9000A207B10538F400932401909323018093B8
:100BA00022010DC0009738E0A307B10508F08DC001
:100BB000109324017F71509323014093220180916F
:100BC0002201909123019093870080938600809169
:100BD0002401806180938100C0900001D0900101C8
:100BE000E0900201F090030189E00E947E00809174
:100BF0008000806880938000A0912201B091230141
:100C0000A7019601442755270E944E072AE0969592
:100C10008795779567952A95D1F7709389006093AA
:100C2000880080912401806180938100C090000140
:100C3000D0900101E0900201F09003018AE00E944F
:100C40007E0080918000806280938000A0912201CC
:100C5000B0912301A7019601442755270E944E0712
:100C60003AE096958795779567953A95D1F7709381
:100C70008B0060938A0080912401806180938100C1
:100C800040E0C42E40E0D42E8EE291E00E94FB00B2
:100C9000181619060CF084C08EE291E00E94FB0049
:100CA0008C010150110908F47BC08EE291E00E9492
:100CB000D900F82E8A30A9F38234D1F589E090E08A
:100CC0000E949A030E94BF02ECCF009720E4A20783
:100CD000B10558F423E02093240176E0B695A7955A
:100CE000979587957A95D1F758CF0097A10531E070
:100CF000B30740F424E020932401892F9A2FAB2FCF
:100D0000BB274BCF0097A10524E0B20758F425E09C
:100D1000209324015AE0B695A795979587955A9503
:100D2000D1F73BCF85E0809324018FEF9FEF35CF44
:100D3000833419F48AE090E0C3CF8D3009F4B1CF49
:100D4000282F2053330B2A30310508F0AACF1A82FE
:100D500019821C821B821E821D826BEC71E0CE0107
:100D600001960E94A002FF82188641E050E0BE0179
:100D7000695F7F4FCE0101960E94E401811104C09A
:100D8000CE0101960E941002BE016F5F7F4F8BEC77
:100D900091E00E94A002CE0101960E94B70281CF8D
:100DA000C114D10409F470CF0E940701882309F40B
:100DB0006BCF0E94000068CF8BEC91E00C94B702DF
:100DC0001F93FC0199278827BC01E89411911032E8
:100DD000E9F3193010F01E30C8F31B3251F01D3208
:100DE00049F4689406C00E940707610F711D811DB8
:100DF000911D119110531A30B0F33EF490958095E7
:100E0000709561957F4F8F4F9F4F1F910895592F78
:100E1000482F372F262F660F771F881F991F660FC1
:100E2000771F881F991F620F731F841F951F660FFE
:100E3000771F881F991F0895BB27FA01A62F6217F5
:100E4000710581059105330B30FB66F0AA27660F0B
:100E5000771F881F991FAA1FA21710F0A21B639566
:100E60003850A9F7A05DAA3308F0A95DA19336F721
:100E7000B111B1931082CA010C943E07DC01FC0150
:100E8000672F71917723E1F7329704C07C916D93BE
:100E900070836291AE17BF07C8F308950E94900750
:100EA000A59F900DB49F900DA49F800D911D1124BE
:100EB00008952F923F924F925F926F927F928F92FE
:100EC0009F92AF92BF92CF92DF92EF92FF920F93D9
:100ED0001F93CF93DF93CDB7DEB7CA1BDB0B0FB6E3
:100EE000F894DEBF0FBECDBF09942A8839884888A0
:100EF0005F846E847D848C849B84AA84B984C88436
:100F0000DF80EE80FD800C811B81AA81B981CE0F2C
:100F1000D11D0FB6F894DEBF0FBECDBFED01089511
:100F2000A29FB001B39FC001A39F700D811D11242A
:100F3000911DB29F700D811D1124911D0895EE0F1A
:100F4000FF1F0590F491E02D09940F931F93CF9309
:100F5000DF938230910510F482E090E0E091D701B8
:100F6000F091D80130E020E0B0E0A0E0309799F4B3
:100F70002115310509F44AC0281B390B24303105ED
:100F8000D8F58A819B816115710589F1FB019383F5
:100F90008283FE0111C04081518102811381481773
:100FA0005907E0F04817590799F4109761F0129625
:100FB0000C93129713961C933296CF01DF91CF9129
:100FC0001F910F9108950093D7011093D801F4CF8A
:100FD0002115310551F04217530738F0A901DB0103
:100FE0009A01BD01DF01F801C1CFEF01F9CF909364
:100FF000D8018093D701CDCFFE01E20FF31F81937B
:1010000091932250310939832883D7CF2091D5017C
:101010003091D601232B41F4209106013091070134
:101020003093D6012093D501209104013091050120
:101030002115310541F42DB73EB74091080150917B
:101040000901241B350BE091D501F091D601E2177F
:10105000F307A0F42E1B3F0B2817390778F0AC01DB
:101060004E5F5F4F2417350748F04E0F5F1F5093B8
:10107000D6014093D501819391939FCFF0E0E0E0BA
:101080009CCFCF93DF930097E9F0FC013297138256
:101090001282A091D701B091D801ED0130E020E09B
:1010A0001097A1F420813181820F931F2091D501E7
:1010B0003091D6012817390709F061C0F093D601A5
:1010C000E093D501DF91CF910895EA01CE17DF07B4
:1010D000E8F54A815B819E0141155105B1F7E901AF
:1010E000FB83EA8349915991C40FD51FEC17FD0783
:1010F00061F4808191810296840F951FE9019983A3
:101100008883828193819B838A83F0E0E0E012965A
:101110008D919C9113970097B9F52D913C91119762
:10112000CD010296820F931F2091D5013091D601F7
:101130002817390739F6309751F51092D8011092D7
:10114000D701B093D601A093D501BCCFD383C2837E
:1011500040815181840F951FC817D90761F44E5FF4
:101160005F4F88819981480F591F518340838A813D
:101170009B81938382832115310509F0B0CFF093D1
:10118000D801E093D7019ECFFD01DC01C0CF1382CF
:101190001282D7CFB0E0A0E0E0EDF8E00C945B075E
:1011A0008C01009751F4CB010E94A5078C01C80166
:1011B000CDB7DEB7E0E10C947707FC01E60FF71F2F
:1011C0009C0122503109E217F30708F49DC0D901B0
:1011D000CD91DC911197C617D70798F0C530D1058E
:1011E00030F3CE0104978617970708F3C61BD70B79
:1011F0002297C193D1936D937C93CF010E944108B4
:10120000D6CF5B01AC1ABD0A4C018C0E9D1EA0917D
:10121000D701B091D801512C412CF12CE12C109721
:1012200031F58091D5019091D6018815990509F085
:101230005CC04616570608F058C080910401909192
:101240000501009741F48DB79EB740910801509178
:101250000901841B950BE817F90708F055C0F093B6
:10126000D601E093D501F90171836083A0CF8D9100
:101270009C91119712966C90129713967C901397ED
:10128000A815B90559F56C0142E0C40ED11CCA1469
:10129000DB0420F1AC014A195B09DA0112961597BB
:1012A00080F06282738251834083D9016D937C9375
:1012B000E114F10471F0D7011396FC93EE931297A9
:1012C00076CF22968C0F9D1FF90191838083F301C5
:1012D000EFCFF093D801E093D70169CF48165906B4
:1012E00008F42C017D01D3019ACFCB010E94A50700
:1012F0007C01009749F0AE01B8010E948709C8013E
:101300000E944108870153CF10E000E050CFFB015D
:10131000DC0102C001900D9241505040D8F7089571
:10132000FB01DC0101900D920020E1F7089510E02F
:10133000C3E5D0E004C0FE010E949F072196C4359A
:08134000D107C9F7F894FFCFB3
:10134800010000000000D9018000000000003D01FC
:101358009D00CA008A01FB00D900ED0009000D0AB2
:02136800000083
:00000001FF
