:100000000C9454000C947C000C947C000C947C00A8
:100010000C947C000C947C000C947C000C947C0070
:100020000C947C000C947C000C947C000C947C0060
:100030000C947C000C944D050C947C000C947C007A
:100040000C94AB040C947C000C941B050C94F504EC
:100050000C947C000C947C000C947C000C947C0030
:100060000C947C000C947C0000000000250028000B
:100070002B0000000000240027002A0004040404D0
:100080000404040402020202020203030303030342
:10009000010204081020408001020408102001021F
:1000A000040810207205800711241FBECFEFD8E08E
:1000B000DEBFCDBF22E0A2E2B1E001C01D92A131BE
:1000C000B207E1F711E0A0E0B1E0E0E9F4E102C03D
:1000D00005900D92A232B107D9F710E0C3E5D0E048
:1000E00004C02197FE010E944308C235D107C9F719
:1000F0000E94CF050C943B0A0C94000090E0FC0198
:10010000E057FF4F249184589F4FFC01849188232E
:1001100099F090E0880F991FFC01EE58FF4FA591D0
:10012000B491FC01E859FF4F859194918FB7F894F1
:10013000EC91E22BEC938FBF0895AF92BF92CF92D8
:10014000DF92EF92FF920F931F93CF93DF936C0197
:100150007B018B01040F151FEB015E01AE18BF0878
:10016000C017D10759F06991D601ED91FC9101902A
:10017000F081E02DC6010995892B79F7C501DF9142
:10018000CF911F910F91FF90EF90DF90CF90BF9094
:10019000AF900895FC01538D448D252F30E0842FBE
:1001A00090E0821B930B541710F0CF96089501979F
:1001B0000895FC01918D828D981761F0A28DAE0F8C
:1001C000BF2FB11D5D968C91928D9F5F9F73928F13
:1001D00090E008958FEF9FEF0895FC01918D828D3F
:1001E000981731F0828DE80FF11D858D90E008950C
:1001F0008FEF9FEF0895FC01918D228D892F90E064
:10020000805C9F4F821B91098F73992708958EE41C
:1002100091E00E94FB0021E0892B09F420E0822F6D
:10022000089580E090E0892B29F00E940701811158
:100230000C9400000895FC01A48DA80FB92FB11DE6
:10024000A35ABF4F2C91848D90E001968F7399270C
:10025000848FA689B7892C93A089B1898C918370EA
:1002600080648C93938D848D981306C00288F389E3
:10027000E02D80818F7D80830895EF92FF920F9310
:100280001F93CF93DF93EC0181E0888F9B8D8C8D42
:1002900098131AC0E889F989808185FF15C09FB736
:1002A000F894EE89FF896083E889F98980818370F9
:1002B000806480839FBF81E090E0DF91CF911F91A8
:1002C0000F91FF90EF900895F62E0B8D10E00F5FC9
:1002D0001F4F0F731127E02E8C8D8E110CC00FB69F
:1002E00007FCFACFE889F989808185FFF5CFCE0137
:1002F0000E941B01F1CFEB8DEC0FFD2FF11DE35A96
:10030000FF4FF0829FB7F8940B8FEA89FB898081B9
:100310008062CFCFCF93DF93EC01888D8823B9F033
:10032000AA89BB89E889F9898C9185FD03C0808100
:1003300086FD0DC00FB607FCF7CF8C9185FFF2CF7D
:10034000808185FFEDCFCE010E941B01E9CFDF91B7
:10035000CF9108958E50806480937C0080917A00C4
:10036000806480937A0080917A0086FDFCCF809132
:1003700078009091790008950F931F93CF93DF93A6
:10038000EC0188819981009759F02A813B812617D9
:10039000370730F081E0DF91CF911F910F910895E1
:1003A0008B016F5F7F4F0E946E09009759F0998310
:1003B00088831B830A832C813D81232B59F7FC0101
:1003C0001082E8CF80E0E7CFEF92FF920F931F9368
:1003D000CF93DF936115710541F480E0DF91CF91F8
:1003E0001F910F91FF90EF90089541155105B1F0C5
:1003F0007B01EC010C811D81040F151FB8010E94C7
:10040000BC01882351F3288139818C819D81B701FA
:10041000820F931F0E94340A1D830C8381E0DECF7C
:10042000CF93DF93EC0188819981009711F00E94AE
:10043000E508198218821D821C821B821A82DF91B4
:10044000CF910895CF93DF93EC0141E050E06CE150
:1004500071E00E94E401811103C0CE010E941002EC
:10046000CE01DF91CF910895CF93DF93EC01FB0193
:1004700044815581608171810E94E401811103C032
:10048000CE010E941002CE01DF91CF910895EF922C
:10049000FF920F931F93CF93DF93EC017B018A01AF
:1004A000BA010E94BC0181110BC0CE010E94100252
:1004B000CE01DF91CF911F910F91FF90EF900895A2
:1004C0001D830C83B701888199810E94340AF0CF83
:1004D000EF92FF920F931F93CF93DF93CDB7DEB7C9
:1004E000A1970FB6F894DEBF0FBECDBF8C01CB0134
:1004F000BA01F801118210821382128215821482CD
:100500002AE0AE014F5F5F4F7A010E94C007F701FA
:1005100001900020E9F73197AF014E195F09B7014B
:10052000C8010E944702A1960FB6F894DEBF0FBE25
:10053000CDBFDF91CF911F910F91FF90EF90089564
:10054000CF93DF93EC01FB018617970749F0608199
:1005500071816115710541F0448155810E94470206
:10056000CE01DF91CF9108950E941002F9CFFC01D6
:1005700080819181009711F00C94E50808954F92C5
:100580005F926F927F928F929F92AF92BF92CF9223
:10059000DF92EF92FF920F931F93CF93DF93CDB72C
:1005A000DEB76E970FB6F894DEBF0FBECDBF8EE0FC
:1005B0000E94AA014C0190934101809340018FE079
:1005C0000E94AA015C0190933F0180933E0180E16B
:1005D0000E94AA018C0190933D0180933C0181E12E
:1005E0000E94AA0190933B0180933A01C0902E0192
:1005F000D0902F01E0903001F0903101B701A601B9
:1006000024E076956795579547952A95D1F7C41AB2
:10061000D50AE60AF70AC80CD91CE11CF11CC092E5
:100620002E01D0922F01E0923001F092310134E09E
:10063000F694E794D794C7943A95D1F7D0923901BC
:10064000C092380140912A0150912B0160912C01F8
:1006500070912D012A013B01E4E076946794579450
:100660004794EA95D1F744195509660977092A0193
:100670003B014A0C5B1C611C711C530142018092BE
:100680002A0190922B01A0922C01B0922D01F4E04E
:10069000B694A79497948794FA95D1F790923701DE
:1006A00080923601409126015091270160912801E6
:1006B000709129012A013B01A4E076946794579434
:1006C0004794AA95D1F74419550966097709400F4F
:1006D000511F611D711D40932601509327016093A6
:1006E000280170932901B4E0769567955795479551
:1006F000BA95D1F7509335014093340140902201CF
:100700005090230160902401709025019301820193
:10071000E4E03695279517950795EA95D1F7401AA5
:10072000510A620A730A480E591E611C711C4092DC
:100730002201509223016092240170922501F4E07D
:100740007694679457944794FA95D1F75092330171
:100750004092320166277727CE0149960E946802AF
:10076000B301A20166277727CE0143960E94680253
:10077000B501A40166277727CE010D960E94680275
:10078000B701A60166277727CE0101960E9468026D
:1007900018861F821A8619861C861B86BE016F5F0B
:1007A0007F4FCE0107960E94A002CE0107960E94BD
:1007B0002202BE01635F7F4F0E9434020E94220228
:1007C000BE016D5E7F4F0E9434020E942202BE0174
:1007D000675E7F4F0E943402FC0144815581608135
:1007E00071818EE491E00E949D0042E050E06EE154
:1007F00071E08EE491E00E949D00CE0107960E9478
:10080000B702CE0101960E94B702CE010D960E945A
:10081000B702CE0143960E94B702CE0149960E94CC
:10082000B7026E960FB6F894DEBF0FBECDBFDF9154
:10083000CF911F910F91FF90EF90DF90CF90BF90DD
:10084000AF909F908F907F906F905F904F900895A2
:10085000CF92DF92EF92FF92CF932091EF013091F0
:10086000F001232B09F465C0E091EB01F091EC015C
:100870009081992309F45DC0C82FC12CD12C760139
:10088000309729F0CF010E9484076B017C01C09250
:100890000001D0920101E0920201F092030150E0C8
:1008A00040E06DE171E08BEE91E00E944702C114DF
:1008B00084E0D806E104F10460F08FEF93E0A0E05B
:1008C000B0E08093000190930101A0930201B093E6
:1008D0000301C0900001D0900101E0900201F0906E
:1008E0000301C93061F589E00E947E00809180009B
:1008F000806880938000A0914201B0914301A701DC
:100900009601442755270E94F207DC01CB012AE01B
:10091000B695A795979587952A95D1F7C930B1F4E3
:100920009093890080938800809144018061809336
:100930008100CF91FF90EF90DF90CF9008958AE0F3
:100940000E947E00809180008062D3CF90938B00C4
:1009500080938A00E9CF1F920F920FB60F92112455
:100960002F933F938F939F93AF93BF9380914A01AF
:1009700090914B01A0914C01B0914D0130914901F2
:1009800023E0230F2D3758F50196A11DB11D2093AB
:10099000490180934A0190934B01A0934C01B0937D
:1009A0004D018091450190914601A0914701B09180
:1009B00048010196A11DB11D809345019093460108
:1009C000A0934701B0934801BF91AF919F918F9140
:1009D0003F912F910F900FBE0F901F90189526E812
:1009E000230F0296A11DB11DD2CF1F920F920FB6F9
:1009F0000F9211242F933F934F935F936F937F93A5
:100A00008F939F93AF93BF93EF93FF938EE491E007
:100A10000E941B01FF91EF91BF91AF919F918F9128
:100A20007F916F915F914F913F912F910F900FBEEA
:100A30000F901F9018951F920F920FB60F921124CE
:100A40002F938F939F93EF93FF93E0915E01F0912B
:100A50005F018081E0916401F091650182FD1BC01E
:100A60009081809167018F5F8F7320916801821759
:100A700041F0E0916701F0E0E25BFE4F958F8093DB
:100A80006701FF91EF919F918F912F910F900FBE72
:100A90000F901F9018958081F4CF1F920F920FB680
:100AA0000F9211242F933F934F935F936F937F93F4
:100AB0008F939F93AF93BF93EF93FF93F0E0E0E0AA
:100AC0000995FF91EF91BF91AF919F918F917F9188
:100AD0006F915F914F913F912F910F900FBE0F90AB
:100AE0001F901895EEE4F1E01382128288EE93E0F5
:100AF000A0E0B0E084839583A683B7838EE091E085
:100B00009183808385EC90E09587848784EC90E0E6
:100B10009787868780EC90E0918B808B81EC90E0CA
:100B2000938B828B82EC90E0958B848B86EC90E0AB
:100B3000978B868B118E128E138E148EE5EFF1E05B
:100B400080E090E0A0E0B0E480839183A283B3834F
:100B500084839583A683B7838FE692E1A3E8BAE303
:100B600080879187A287B38784E690E0A0E0B0E019
:100B70008093F1019093F201A093F301B093F401FB
:100B8000EBEEF1E011821082138212821582148240
:100B900050E040E06DE171E0CF010C944702CF934B
:100BA000DF93CDB7DEB728970FB6F894DEBF0FBE40
:100BB000CDBF789484B5826084BD84B5816084BDE6
:100BC00085B5826085BD85B5816085BD80916E00EB
:100BD000816080936E00109281008091810082601C
:100BE0008093810080918100816080938100809159
:100BF00080008160809380008091B1008460809348
:100C0000B1008091B00081608093B00080917A0043
:100C1000846080937A0080917A00826080937A0069
:100C200080917A00816080937A0080917A00806858
:100C300080937A001092C100E0915E01F0915F0113
:100C400012E01083E0915A01F0915B011082E09173
:100C50005C01F0915D0101E0008310926601E0917A
:100C60006201F091630186E08083E0916001F09180
:100C70006101808180618083E0916001F091610178
:100C8000808188608083E0916001F09161018081C2
:100C900080688083E0916001F091610180818F7DA7
:100CA00080838AE00E947E004091F1015091F20120
:100CB0006091F3017091F40180E1809381001092C2
:100CC0008000DB01CA01E3E0880F991FAA1FBB1F48
:100CD000EA95D1F7009721E0A207B10538F4009317
:100CE000440190934301809342010DC0009738E086
:100CF000A307B10508F08DC0109344017F71509394
:100D000043014093420180914201909143019093AD
:100D100087008093860080914401806180938100E8
:100D2000C0900001D0900101E0900201F090030119
:100D30008AE00E947E008091800080628093800023
:100D4000A0914201B0914301A70196014427552784
:100D50000E94F2072AE096958795779567952A95E0
:100D6000D1F770938B0060938A0080914401806179
:100D700080938100C0900001D0900101E0900201B9
:100D8000F090030189E00E947E00809180008068DD
:100D900080938000A0914201B0914301A701960188
:100DA000442755270E94F2073AE096958795779554
:100DB00067953A95D1F77093890060938800809188
:100DC000440180618093810040E0C42E40E0D42E35
:100DD0008EE491E00E94FB00181619060CF084C006
:100DE0008EE491E00E94FB008C010150110908F48F
:100DF0007BC08EE491E00E94D900F82E8A30A9F3DE
:100E00008234D1F58AE090E00E9428040E94BF025B
:100E1000ECCF009720E4A207B10558F423E020931B
:100E2000440176E0B695A795979587957A95D1F781
:100E300058CF0097A10531E0B30740F424E0209398
:100E40004401892F9A2FAB2FBB274BCF0097A105C9
:100E500024E0B20758F425E0209344015AE0B69507
:100E6000A795979587955A95D1F73BCF85E08093C5
:100E700044018FEF9FEF35CF833419F489E090E080
:100E8000C3CF8D3009F4B1CF282F2053330B2A3034
:100E9000310508F0AACF1A8219821C821B821E8299
:100EA0001D826BEE71E0CE0101960E94A002FF82CE
:100EB000188641E050E0BE01695F7F4FCE01019688
:100EC0000E94E401811104C0CE0101960E9410022B
:100ED000BE016F5F7F4F8BEE91E00E94A002CE01BA
:100EE00001960E94B70281CFC114D10409F470CFDA
:100EF0000E940701882309F46BCF0E94000068CF8D
:100F00008BEE91E00C94B7021F93FC019927882780
:100F1000BC01E89411911032E9F3193010F01E3041
:100F2000C8F31B3251F01D3249F4689406C00E9488
:100F3000AB07610F711D811D911D119110531A3066
:100F4000B0F33EF490958095709561957F4F8F4FEB
:100F50009F4F1F910895592F482F372F262F660F27
:100F6000771F881F991F660F771F881F991F620FB1
:100F7000731F841F951F660F771F881F991F089581
:100F8000BB27FA01A62F6217710581059105330B66
:100F900030FB66F0AA27660F771F881F991FAA1FCC
:100FA000A21710F0A21B63953850A9F7A05DAA33D1
:100FB00008F0A95DA19336F7B111B1931082CA016F
:100FC0000C94E207DC01FC01672F71917723E1F7B4
:100FD000329704C07C916D9370836291AE17BF0706
:100FE000C8F308950E943408A59F900DB49F900DFA
:100FF000A49F800D911D112408952F923F924F922E
:101000005F926F927F928F929F92AF92BF92CF9298
:10101000DF92EF92FF920F931F93CF93DF93CDB7A1
:10102000DEB7CA1BDB0B0FB6F894DEBF0FBECDBF19
:1010300009942A88398848885F846E847D848C84EA
:101040009B84AA84B984C884DF80EE80FD800C81F3
:101050001B81AA81B981CE0FD11D0FB6F894DEBFD6
:101060000FBECDBFED010895A29FB001B39FC00197
:10107000A39F700D811D1124911DB29F700D811DC4
:101080001124911D0895EE0FFF1F0590F491E02D9E
:1010900009940F931F93CF93DF938230910510F43F
:1010A00082E090E0E0910F02F091100230E020E049
:1010B000B0E0A0E0309799F42115310509F44AC059
:1010C000281B390B24303105D8F58A819B816115A5
:1010D000710589F1FB0193838283FE0111C0408178
:1010E00051810281138148175907E0F048175907C9
:1010F00099F4109761F012960C93129713961C9323
:101100003296CF01DF91CF911F910F9108950093F7
:101110000F0210931002F4CF2115310551F0421740
:10112000530738F0A901DB019A01BD01DF01F80185
:10113000C1CFEF01F9CF9093100280930F02CDCF72
:10114000FE01E20FF31F81939193225031093983FD
:101150002883D7CF20910D0230910E02232B41F42A
:10116000209106013091070130930E0220930D0269
:1011700020910401309105012115310541F42DB76D
:101180003EB74091080150910901241B350BE091B5
:101190000D02F0910E02E217F307A0F42E1B3F0B95
:1011A0002817390778F0AC014E5F5F4F24173507D9
:1011B00048F04E0F5F1F50930E0240930D02819333
:1011C00091939FCFF0E0E0E09CCFCF93DF93009727
:1011D000E9F0FC01329713821282A0910F02B091C4
:1011E0001002ED0130E020E01097A1F42081318160
:1011F000820F931F20910D0230910E02281739079C
:1012000009F061C0F0930E02E0930D02DF91CF91DF
:101210000895EA01CE17DF07E8F54A815B819E0158
:1012200041155105B1F7E901FB83EA8349915991D1
:10123000C40FD51FEC17FD0761F4808191810296E0
:10124000840F951FE90199838883828193819B8311
:101250008A83F0E0E0E012968D919C9113970097BD
:10126000B9F52D913C911197CD010296820F931FF4
:1012700020910D0230910E022817390739F6309768
:1012800051F51092100210920F02B0930E02A0932B
:101290000D02BCCFD383C28340815181840F951F3F
:1012A000C817D90761F44E5F5F4F88819981480F55
:1012B000591F518340838A819B81938382832115A7
:1012C000310509F0B0CFF0931002E0930F029ECFEA
:1012D000FD01DC01C0CF13821282D7CFB0E0A0E0C5
:1012E000E4E7F9E00C94FF078C01009751F4CB017F
:1012F0000E9449088C01C801CDB7DEB7E0E10C942B
:101300001B08FC01E60FF71F9C0122503109E21770
:10131000F30708F49DC0D901CD91DC911197C61750
:10132000D70798F0C530D10530F3CE010497861762
:10133000970708F3C61BD70B2297C193D1936D93E0
:101340007C93CF010E94E508D6CF5B01AC1ABD0AA1
:101350004C018C0E9D1EA0910F02B0911002512CD9
:10136000412CF12CE12C109731F580910D029091D8
:101370000E028815990509F05CC04616570608F05C
:1013800058C08091040190910501009741F48DB7F8
:101390009EB74091080150910901841B950BE817F5
:1013A000F90708F055C0F0930E02E0930D02F90121
:1013B00071836083A0CF8D919C91119712966C9050
:1013C000129713967C901397A815B90559F56C01DF
:1013D00042E0C40ED11CCA14DB0420F1AC014A194E
:1013E0005B09DA011296159780F06282738251834D
:1013F0004083D9016D937C93E114F10471F0D7011E
:101400001396FC93EE93129776CF22968C0F9D1F26
:10141000F90191838083F301EFCFF0931002E09301
:101420000F0269CF4816590608F42C017D01D3013B
:101430009ACFCB010E9449087C01009749F0AE0188
:10144000B8010E942B0AC8010E94E508870153CF0A
:1014500010E000E050CFFB01DC0102C001900D92D2
:1014600041505040D8F70895FB01DC0101900D92E6
:101470000020E1F7089510E0C3E5D0E004C0FE01CC
:101480000E9443082196C435D107C9F7F894FFCFCD
:1014900001000000000011028000000000003D017A
:1014A0009D00CA008A01FB00D900ED0009000D0A69
:0214B00000003A
:00000001FF
